{
  "_format": "hh-sol-artifact-1",
  "contractName": "Voting",
  "sourceName": "contracts/Voting.sol",
  "abi": [
    {
      "inputs": [
        {
          "internalType": "address",
          "name": "_voterRegistryAddress",
          "type": "address"
        }
      ],
      "stateMutability": "nonpayable",
      "type": "constructor"
    },
    {
      "anonymous": false,
      "inputs": [
        {
          "indexed": true,
          "internalType": "uint256",
          "name": "pollId",
          "type": "uint256"
        },
        {
          "indexed": false,
          "internalType": "string",
          "name": "title",
          "type": "string"
        },
        {
          "indexed": false,
          "internalType": "uint256",
          "name": "endTime",
          "type": "uint256"
        }
      ],
      "name": "PollCreated",
      "type": "event"
    },
    {
      "anonymous": false,
      "inputs": [
        {
          "indexed": true,
          "internalType": "uint256",
          "name": "pollId",
          "type": "uint256"
        },
        {
          "indexed": false,
          "internalType": "uint256",
          "name": "optionIndex",
          "type": "uint256"
        },
        {
          "indexed": false,
          "internalType": "address",
          "name": "voter",
          "type": "address"
        }
      ],
      "name": "VoteCast",
      "type": "event"
    },
    {
      "inputs": [],
      "name": "admin",
      "outputs": [
        {
          "internalType": "address",
          "name": "",
          "type": "address"
        }
      ],
      "stateMutability": "view",
      "type": "function"
    },
    {
      "inputs": [
        {
          "internalType": "uint256",
          "name": "_pollId",
          "type": "uint256"
        },
        {
          "internalType": "uint256",
          "name": "_optionIndex",
          "type": "uint256"
        }
      ],
      "name": "castVote",
      "outputs": [],
      "stateMutability": "nonpayable",
      "type": "function"
    },
    {
      "inputs": [
        {
          "internalType": "string",
          "name": "_title",
          "type": "string"
        },
        {
          "internalType": "string",
          "name": "_description",
          "type": "string"
        },
        {
          "internalType": "string[]",
          "name": "_options",
          "type": "string[]"
        },
        {
          "internalType": "uint256",
          "name": "_duration",
          "type": "uint256"
        }
      ],
      "name": "createPoll",
      "outputs": [],
      "stateMutability": "nonpayable",
      "type": "function"
    },
    {
      "inputs": [
        {
          "internalType": "uint256",
          "name": "_pollId",
          "type": "uint256"
        }
      ],
      "name": "getPoll",
      "outputs": [
        {
          "internalType": "string",
          "name": "title",
          "type": "string"
        },
        {
          "internalType": "string",
          "name": "description",
          "type": "string"
        },
        {
          "internalType": "string[]",
          "name": "options",
          "type": "string[]"
        },
        {
          "internalType": "uint256[]",
          "name": "votes",
          "type": "uint256[]"
        },
        {
          "internalType": "uint256",
          "name": "endTime",
          "type": "uint256"
        },
        {
          "internalType": "bool",
          "name": "isActive",
          "type": "bool"
        }
      ],
      "stateMutability": "view",
      "type": "function"
    },
    {
      "inputs": [],
      "name": "getPollsCount",
      "outputs": [
        {
          "internalType": "uint256",
          "name": "",
          "type": "uint256"
        }
      ],
      "stateMutability": "view",
      "type": "function"
    },
    {
      "inputs": [
        {
          "internalType": "address",
          "name": "",
          "type": "address"
        },
        {
          "internalType": "uint256",
          "name": "",
          "type": "uint256"
        }
      ],
      "name": "hasVotedInPoll",
      "outputs": [
        {
          "internalType": "bool",
          "name": "",
          "type": "bool"
        }
      ],
      "stateMutability": "view",
      "type": "function"
    },
    {
      "inputs": [
        {
          "internalType": "uint256",
          "name": "",
          "type": "uint256"
        }
      ],
      "name": "polls",
      "outputs": [
        {
          "internalType": "string",
          "name": "title",
          "type": "string"
        },
        {
          "internalType": "string",
          "name": "description",
          "type": "string"
        },
        {
          "internalType": "uint256",
          "name": "endTime",
          "type": "uint256"
        },
        {
          "internalType": "bool",
          "name": "isActive",
          "type": "bool"
        }
      ],
      "stateMutability": "view",
      "type": "function"
    },
    {
      "inputs": [],
      "name": "voterRegistry",
      "outputs": [
        {
          "internalType": "contract VoterRegistry",
          "name": "",
          "type": "address"
        }
      ],
      "stateMutability": "view",
      "type": "function"
    }
  ],
  "bytecode": "0x60806040523480156200001157600080fd5b506040516200221f3803806200221f833981810160405281019062000037919062000129565b33600160006101000a81548173ffffffffffffffffffffffffffffffffffffffff021916908373ffffffffffffffffffffffffffffffffffffffff160217905550806000806101000a81548173ffffffffffffffffffffffffffffffffffffffff021916908373ffffffffffffffffffffffffffffffffffffffff160217905550506200015b565b600080fd5b600073ffffffffffffffffffffffffffffffffffffffff82169050919050565b6000620000f182620000c4565b9050919050565b6200010381620000e4565b81146200010f57600080fd5b50565b6000815190506200012381620000f8565b92915050565b600060208284031215620001425762000141620000bf565b5b6000620001528482850162000112565b91505092915050565b6120b4806200016b6000396000f3fe608060405234801561001057600080fd5b50600436106100885760003560e01c8063be60040e1161005b578063be60040e1461012d578063e09959161461014b578063f851a44014610169578063f890d4601461018757610088565b80631a8cbcaa1461008d5780632c0a3f89146100c2578063ac2f0074146100de578063ad0f04a914610111575b600080fd5b6100a760048036038101906100a29190610fe9565b6101b7565b6040516100b99695949392919061129a565b60405180910390f35b6100dc60048036038101906100d79190611317565b6104a7565b005b6100f860048036038101906100f39190610fe9565b61099a565b6040516101089493929190611357565b60405180910390f35b61012b600480360381019061012691906115c5565b610af7565b005b610135610df2565b60405161014291906116ff565b60405180910390f35b610153610e16565b604051610160919061171a565b60405180910390f35b610171610e23565b60405161017e9190611756565b60405180910390f35b6101a1600480360381019061019c919061179d565b610e49565b6040516101ae91906117dd565b60405180910390f35b6060806060806000806002805490508710610207576040517f08c379a00000000000000000000000000000000000000000000000000000000081526004016101fe90611844565b60405180910390fd5b60006002888154811061021d5761021c611864565b5b906000526020600020906006020190508060000181600101826002018360030184600401548560050160009054906101000a900460ff16858054610260906118c2565b80601f016020809104026020016040519081016040528092919081815260200182805461028c906118c2565b80156102d95780601f106102ae576101008083540402835291602001916102d9565b820191906000526020600020905b8154815290600101906020018083116102bc57829003601f168201915b505050505095508480546102ec906118c2565b80601f0160208091040260200160405190810160405280929190818152602001828054610318906118c2565b80156103655780601f1061033a57610100808354040283529160200191610365565b820191906000526020600020905b81548152906001019060200180831161034857829003601f168201915b5050505050945083805480602002602001604051908101604052809291908181526020016000905b828210156104395783829060005260206000200180546103ac906118c2565b80601f01602080910402602001604051908101604052809291908181526020018280546103d8906118c2565b80156104255780601f106103fa57610100808354040283529160200191610425565b820191906000526020600020905b81548152906001019060200180831161040857829003601f168201915b50505050508152602001906001019061038d565b5050505093508280548060200260200160405190810160405280929190818152602001828054801561048a57602002820191906000526020600020905b815481526020019060010190808311610476575b505050505092509650965096509650965096505091939550919395565b60008054906101000a900473ffffffffffffffffffffffffffffffffffffffff1673ffffffffffffffffffffffffffffffffffffffff1663c3c5a547336040518263ffffffff1660e01b81526004016105009190611756565b602060405180830381865afa15801561051d573d6000803e3d6000fd5b505050506040513d601f19601f82011682018060405250810190610541919061191f565b610580576040517f08c379a000000000000000000000000000000000000000000000000000000000815260040161057790611998565b60405180910390fd5b60028054905082106105c7576040517f08c379a00000000000000000000000000000000000000000000000000000000081526004016105be90611844565b60405180910390fd5b600282815481106105db576105da611864565b5b9060005260206000209060060201600201805490508110610631576040517f08c379a000000000000000000000000000000000000000000000000000000000815260040161062890611a04565b60405180910390fd5b6002828154811061064557610644611864565b5b906000526020600020906006020160040154421115610699576040517f08c379a000000000000000000000000000000000000000000000000000000000815260040161069090611a70565b60405180910390fd5b600360003373ffffffffffffffffffffffffffffffffffffffff1673ffffffffffffffffffffffffffffffffffffffff168152602001908152602001600020600083815260200190815260200160002060009054906101000a900460ff1615610737576040517f08c379a000000000000000000000000000000000000000000000000000000000815260040161072e90611adc565b60405180910390fd5b60008054906101000a900473ffffffffffffffffffffffffffffffffffffffff1673ffffffffffffffffffffffffffffffffffffffff16638574d5b0336040518263ffffffff1660e01b81526004016107909190611756565b602060405180830381865afa1580156107ad573d6000803e3d6000fd5b505050506040513d601f19601f820116820180604052508101906107d1919061191f565b15610811576040517f08c379a000000000000000000000000000000000000000000000000000000000815260040161080890611b48565b60405180910390fd5b6002828154811061082557610824611864565b5b9060005260206000209060060201600301818154811061084857610847611864565b5b90600052602060002001600081548092919061086390611b97565b91905055506001600360003373ffffffffffffffffffffffffffffffffffffffff1673ffffffffffffffffffffffffffffffffffffffff168152602001908152602001600020600084815260200190815260200160002060006101000a81548160ff02191690831515021790555060008054906101000a900473ffffffffffffffffffffffffffffffffffffffff1673ffffffffffffffffffffffffffffffffffffffff1663291640d0336040518263ffffffff1660e01b815260040161092a9190611756565b600060405180830381600087803b15801561094457600080fd5b505af1158015610958573d6000803e3d6000fd5b50505050817f7fe1d4e6b34e228b5dc059fcdc037c71b216fb2417f47c171e505144a5e4f5fc823360405161098e929190611bdf565b60405180910390a25050565b600281815481106109aa57600080fd5b90600052602060002090600602016000915090508060000180546109cd906118c2565b80601f01602080910402602001604051908101604052809291908181526020018280546109f9906118c2565b8015610a465780601f10610a1b57610100808354040283529160200191610a46565b820191906000526020600020905b815481529060010190602001808311610a2957829003601f168201915b505050505090806001018054610a5b906118c2565b80601f0160208091040260200160405190810160405280929190818152602001828054610a87906118c2565b8015610ad45780601f10610aa957610100808354040283529160200191610ad4565b820191906000526020600020905b815481529060010190602001808311610ab757829003601f168201915b5050505050908060040154908060050160009054906101000a900460ff16905084565b600160009054906101000a900473ffffffffffffffffffffffffffffffffffffffff1673ffffffffffffffffffffffffffffffffffffffff163373ffffffffffffffffffffffffffffffffffffffff1614610b87576040517f08c379a0000000000000000000000000000000000000000000000000000000008152600401610b7e90611c7a565b60405180910390fd5b6001825111610bcb576040517f08c379a0000000000000000000000000000000000000000000000000000000008152600401610bc290611ce6565b60405180910390fd5b60008111610c0e576040517f08c379a0000000000000000000000000000000000000000000000000000000008152600401610c0590611d52565b60405180910390fd5b6000825167ffffffffffffffff811115610c2b57610c2a6113b4565b5b604051908082528060200260200182016040528015610c595781602001602082028036833780820191505090505b50905060005b8351811015610c96576000828281518110610c7d57610c7c611864565b5b6020026020010181815250508080600101915050610c5f565b5060006040518060c001604052808781526020018681526020018581526020018381526020018442610cc89190611d72565b815260200160011515815250905060028190806001815401808255809150506001900390600052602060002090600602016000909190919091506000820151816000019081610d179190611f48565b506020820151816001019081610d2d9190611f48565b506040820151816002019080519060200190610d4a929190610e78565b506060820151816003019080519060200190610d67929190610ed1565b506080820151816004015560a08201518160050160006101000a81548160ff02191690831515021790555050506001600280549050610da6919061201a565b7fc3ad3dd4f77bea708d7c21b918efa79c536b30c5048924662db7a2bd96f48316878542610dd49190611d72565b604051610de292919061204e565b60405180910390a2505050505050565b60008054906101000a900473ffffffffffffffffffffffffffffffffffffffff1681565b6000600280549050905090565b600160009054906101000a900473ffffffffffffffffffffffffffffffffffffffff1681565b60036020528160005260406000206020528060005260406000206000915091509054906101000a900460ff1681565b828054828255906000526020600020908101928215610ec0579160200282015b82811115610ebf578251829081610eaf9190611f48565b5091602001919060010190610e98565b5b509050610ecd9190610f1e565b5090565b828054828255906000526020600020908101928215610f0d579160200282015b82811115610f0c578251825591602001919060010190610ef1565b5b509050610f1a9190610f42565b5090565b5b80821115610f3e5760008181610f359190610f5f565b50600101610f1f565b5090565b5b80821115610f5b576000816000905550600101610f43565b5090565b508054610f6b906118c2565b6000825580601f10610f7d5750610f9c565b601f016020900490600052602060002090810190610f9b9190610f42565b5b50565b6000604051905090565b600080fd5b600080fd5b6000819050919050565b610fc681610fb3565b8114610fd157600080fd5b50565b600081359050610fe381610fbd565b92915050565b600060208284031215610fff57610ffe610fa9565b5b600061100d84828501610fd4565b91505092915050565b600081519050919050565b600082825260208201905092915050565b60005b83811015611050578082015181840152602081019050611035565b60008484015250505050565b6000601f19601f8301169050919050565b600061107882611016565b6110828185611021565b9350611092818560208601611032565b61109b8161105c565b840191505092915050565b600081519050919050565b600082825260208201905092915050565b6000819050602082019050919050565b600082825260208201905092915050565b60006110ee82611016565b6110f881856110d2565b9350611108818560208601611032565b6111118161105c565b840191505092915050565b600061112883836110e3565b905092915050565b6000602082019050919050565b6000611148826110a6565b61115281856110b1565b935083602082028501611164856110c2565b8060005b858110156111a05784840389528151611181858261111c565b945061118c83611130565b925060208a01995050600181019050611168565b50829750879550505050505092915050565b600081519050919050565b600082825260208201905092915050565b6000819050602082019050919050565b6111e781610fb3565b82525050565b60006111f983836111de565b60208301905092915050565b6000602082019050919050565b600061121d826111b2565b61122781856111bd565b9350611232836111ce565b8060005b8381101561126357815161124a88826111ed565b975061125583611205565b925050600181019050611236565b5085935050505092915050565b61127981610fb3565b82525050565b60008115159050919050565b6112948161127f565b82525050565b600060c08201905081810360008301526112b4818961106d565b905081810360208301526112c8818861106d565b905081810360408301526112dc818761113d565b905081810360608301526112f08186611212565b90506112ff6080830185611270565b61130c60a083018461128b565b979650505050505050565b6000806040838503121561132e5761132d610fa9565b5b600061133c85828601610fd4565b925050602061134d85828601610fd4565b9150509250929050565b60006080820190508181036000830152611371818761106d565b90508181036020830152611385818661106d565b90506113946040830185611270565b6113a1606083018461128b565b95945050505050565b600080fd5b600080fd5b7f4e487b7100000000000000000000000000000000000000000000000000000000600052604160045260246000fd5b6113ec8261105c565b810181811067ffffffffffffffff8211171561140b5761140a6113b4565b5b80604052505050565b600061141e610f9f565b905061142a82826113e3565b919050565b600067ffffffffffffffff82111561144a576114496113b4565b5b6114538261105c565b9050602081019050919050565b82818337600083830152505050565b600061148261147d8461142f565b611414565b90508281526020810184848401111561149e5761149d6113af565b5b6114a9848285611460565b509392505050565b600082601f8301126114c6576114c56113aa565b5b81356114d684826020860161146f565b91505092915050565b600067ffffffffffffffff8211156114fa576114f96113b4565b5b602082029050602081019050919050565b600080fd5b600061152361151e846114df565b611414565b905080838252602082019050602084028301858111156115465761154561150b565b5b835b8181101561158d57803567ffffffffffffffff81111561156b5761156a6113aa565b5b80860161157889826114b1565b85526020850194505050602081019050611548565b5050509392505050565b600082601f8301126115ac576115ab6113aa565b5b81356115bc848260208601611510565b91505092915050565b600080600080608085870312156115df576115de610fa9565b5b600085013567ffffffffffffffff8111156115fd576115fc610fae565b5b611609878288016114b1565b945050602085013567ffffffffffffffff81111561162a57611629610fae565b5b611636878288016114b1565b935050604085013567ffffffffffffffff81111561165757611656610fae565b5b61166387828801611597565b925050606061167487828801610fd4565b91505092959194509250565b600073ffffffffffffffffffffffffffffffffffffffff82169050919050565b6000819050919050565b60006116c56116c06116bb84611680565b6116a0565b611680565b9050919050565b60006116d7826116aa565b9050919050565b60006116e9826116cc565b9050919050565b6116f9816116de565b82525050565b600060208201905061171460008301846116f0565b92915050565b600060208201905061172f6000830184611270565b92915050565b600061174082611680565b9050919050565b61175081611735565b82525050565b600060208201905061176b6000830184611747565b92915050565b61177a81611735565b811461178557600080fd5b50565b60008135905061179781611771565b92915050565b600080604083850312156117b4576117b3610fa9565b5b60006117c285828601611788565b92505060206117d385828601610fd4565b9150509250929050565b60006020820190506117f2600083018461128b565b92915050565b7f496e76616c696420706f6c6c2049440000000000000000000000000000000000600082015250565b600061182e600f83611021565b9150611839826117f8565b602082019050919050565b6000602082019050818103600083015261185d81611821565b9050919050565b7f4e487b7100000000000000000000000000000000000000000000000000000000600052603260045260246000fd5b7f4e487b7100000000000000000000000000000000000000000000000000000000600052602260045260246000fd5b600060028204905060018216806118da57607f821691505b6020821081036118ed576118ec611893565b5b50919050565b6118fc8161127f565b811461190757600080fd5b50565b600081519050611919816118f3565b92915050565b60006020828403121561193557611934610fa9565b5b60006119438482850161190a565b91505092915050565b7f566f746572206e6f742072656769737465726564000000000000000000000000600082015250565b6000611982601483611021565b915061198d8261194c565b602082019050919050565b600060208201905081810360008301526119b181611975565b9050919050565b7f496e76616c6964206f7074696f6e20696e646578000000000000000000000000600082015250565b60006119ee601483611021565b91506119f9826119b8565b602082019050919050565b60006020820190508181036000830152611a1d816119e1565b9050919050565b7f506f6c6c2068617320656e646564000000000000000000000000000000000000600082015250565b6000611a5a600e83611021565b9150611a6582611a24565b602082019050919050565b60006020820190508181036000830152611a8981611a4d565b9050919050565b7f416c726561647920766f74656420696e207468697320706f6c6c000000000000600082015250565b6000611ac6601a83611021565b9150611ad182611a90565b602082019050919050565b60006020820190508181036000830152611af581611ab9565b9050919050565b7f566f7465722068617320616c726561647920766f746564000000000000000000600082015250565b6000611b32601783611021565b9150611b3d82611afc565b602082019050919050565b60006020820190508181036000830152611b6181611b25565b9050919050565b7f4e487b7100000000000000000000000000000000000000000000000000000000600052601160045260246000fd5b6000611ba282610fb3565b91507fffffffffffffffffffffffffffffffffffffffffffffffffffffffffffffffff8203611bd457611bd3611b68565b5b600182019050919050565b6000604082019050611bf46000830185611270565b611c016020830184611747565b9392505050565b7f4f6e6c792061646d696e2063616e2063616c6c20746869732066756e6374696f60008201527f6e00000000000000000000000000000000000000000000000000000000000000602082015250565b6000611c64602183611021565b9150611c6f82611c08565b604082019050919050565b60006020820190508181036000830152611c9381611c57565b9050919050565b7f4d7573742068617665206174206c656173742032206f7074696f6e7300000000600082015250565b6000611cd0601c83611021565b9150611cdb82611c9a565b602082019050919050565b60006020820190508181036000830152611cff81611cc3565b9050919050565b7f4475726174696f6e206d7573742062652067726561746572207468616e203000600082015250565b6000611d3c601f83611021565b9150611d4782611d06565b602082019050919050565b60006020820190508181036000830152611d6b81611d2f565b9050919050565b6000611d7d82610fb3565b9150611d8883610fb3565b9250828201905080821115611da057611d9f611b68565b5b92915050565b60008190508160005260206000209050919050565b60006020601f8301049050919050565b600082821b905092915050565b600060088302611e087fffffffffffffffffffffffffffffffffffffffffffffffffffffffffffffffff82611dcb565b611e128683611dcb565b95508019841693508086168417925050509392505050565b6000611e45611e40611e3b84610fb3565b6116a0565b610fb3565b9050919050565b6000819050919050565b611e5f83611e2a565b611e73611e6b82611e4c565b848454611dd8565b825550505050565b600090565b611e88611e7b565b611e93818484611e56565b505050565b5b81811015611eb757611eac600082611e80565b600181019050611e99565b5050565b601f821115611efc57611ecd81611da6565b611ed684611dbb565b81016020851015611ee5578190505b611ef9611ef185611dbb565b830182611e98565b50505b505050565b600082821c905092915050565b6000611f1f60001984600802611f01565b1980831691505092915050565b6000611f388383611f0e565b9150826002028217905092915050565b611f5182611016565b67ffffffffffffffff811115611f6a57611f696113b4565b5b611f7482546118c2565b611f7f828285611ebb565b600060209050601f831160018114611fb25760008415611fa0578287015190505b611faa8582611f2c565b865550612012565b601f198416611fc086611da6565b60005b82811015611fe857848901518255600182019150602085019450602081019050611fc3565b868310156120055784890151612001601f891682611f0e565b8355505b6001600288020188555050505b505050505050565b600061202582610fb3565b915061203083610fb3565b925082820390508181111561204857612047611b68565b5b92915050565b60006040820190508181036000830152612068818561106d565b90506120776020830184611270565b939250505056fea26469706673582212206db8da781f91b752afe1aec27abab0dcb46dbe8556f5cf360bbf8282c2ff009764736f6c63430008180033",
  "linkReferences": {},
  "deployedLinkReferences": {}
}